S01100005053555F43565F43432E737265633E
S11300000C9434000C943E000C943E000C943E007E
S11300100C943E000C943E000C943E000C943E0064
S11300200C943E000C943E000C943E000C943E0054
S11300300C943E000C943E000C943E000C943E0044
S11300400C943E000C943E000C943E000C943E0034
S11300500C943E000C943E000C943E000C943E0024
S11300600C943E000C943E0011241FBECFEFD8E048
S1130070DEBFCDBF0E945E000C9473000C940000A0
S113008090917C00907F90937C0090917C00982BC1
S113009090937C0080917A00806480937A008091B0
S11300A07A0086FDFCCF80917800909179000895C4
S11300B088E18093B8001092B90008950E94580016
S11300C080E895E20E94680080E00E944000FFCF33
S11300D09093C5008093C40088E18093C1008EE0B2
S10D00E08093C2000895F894FFCF46
S9030000FC
